:100000000C9447010C94E7110C94BC110C949111C1
:100010000C9466110C943B110C9410110C94E51087
:100020000C94BA100C9478010C9478010C9478011B
:100030000C9478010C9412120C9478010C947801B1
:100040000C9478010C9478010C9478010C9478014C
:100050000C9478010C9478010C9478010C94701035
:100060000C9478010C9478010C9478010C9478012C
:100070000C9478010C9478010C9478010C9478011C
:100080000C9478010C9478010C9478010C9478010C
:100090000C9478010C9478010C9478010C947212F1
:1000A0000C9478010C9478010C9478010C947801EC
:1000B0000C9478010C9478010C9478010C947801DC
:1000C0000C9478010C9478010C9478010C947801CC
:1000D0000C9478010C9478010C9478010C947801BC
:1000E0000C9478010C9479050C94D8010C94930528
:1000F0000C9437080C94521D0C94A2010C949E0190
:100100000C94CD040C9469050C94C1010C94AA01C3
:100110000C94C5010C94CB010C9479040C948604C6
:100120000C946A050C94D6060C94D3010C948C059F
:100130000C94BD010C94CF010C94D9010C9485044E
:100140000C9487040C94A6010C9498010C94C0059F
:100150000C9496130C94DD010C94B3010C9484045C
:100160000C94B7010C94AD0100002100240027007D
:100170002A002D00300033000101000004010701B6
:100180000A01000020002300260029002C002F0077
:1001900032000001000003010601090100000A0B02
:1001A00002090C0D0E080703040100000000000006
:1001B000000000000000000000000000000000003F
:1001C00000000000000000001211100000000000FC
:1001D000000000000000000000000000000000001F
:1001E000000001021020200808102040102040804C
:1001F00002010201080402010102040810204080EB
:100200008040201008040201800402018040201078
:1002100008040201080402010102040810204080C1
:100220000102040810204080000022002500280060
:100230002B002E00310034000201000005010801EE
:100240000B0105050505070508080808020202025A
:100250000A0A080804040404010101010101010162
:100260000303030303030303040707070C0C0C0C2D
:100270000C0C0C0C02020202060606060606060616
:100280000B0B0B0B0B0B0B0B02009613521D1124C7
:100290001FBECFEFD1E2DEBFCDBF00E00CBF14E048
:1002A000A0E0B2E0E6EDF3E400E00BBF02C007908F
:1002B0000D92A23EB107D9F726E0A2EEB4E001C04C
:1002C0001D92AD31B207E1F711E0C6E4D1E000E0E4
:1002D00006C021970109802FFE010E949E1FC53490
:1002E000D10780E00807A9F70E94C2130C94D92116
:1002F0000C9400008150823108F05AC0E82FF0E0E1
:100300008827EA57FE4F8F4F0C949E1FA601AA0123
:1003100098019E01A201D801AD01B301B701BD0151
:10032000C101C501CB01CF01D801D301D901DD0144
:10033000809180008F778093800008958091800065
:100340008F7DF9CF80918000877FF5CF84B58F773F
:1003500084BD089584B58F7DFBCF8091B0008F77E9
:100360008093B00008958091B0008F7DF9CF809187
:1003700090008F77809390000895809190008F7DFA
:10038000F9CF80919000877FF5CF8091A0008F7783
:100390008093A00008958091A0008F7DF9CF809177
:1003A000A000877FF5CF809120018F778093200177
:1003B0000895809120018F7DF9CF80912001877F62
:1003C000F5CFCF93DF93282F30E0F901E456FE4FAD
:1003D0008491F901EE51FE4FD491F901EE5BFD4F8E
:1003E000C491CC23A1F081110E947A01EC2FF0E09E
:1003F000EE0FFF1FEE57FE4FA591B491EC91ED2348
:1004000081E090E009F480E0DF91CF91089580E0F1
:1004100090E0FACF1F93CF93DF93282F30E0F901BC
:10042000E456FE4F8491F901EE51FE4FD491F9014B
:10043000EE5BFD4FC491CC23A9F0162F81110E94D1
:100440007A01EC2FF0E0EE0FFF1FE85DFD4FA59164
:10045000B4918FB7F894EC91111108C0D095DE23B8
:10046000DC938FBFDF91CF911F910895DE2BF8CFE2
:10047000CF93DF9390E0FC01EE51FE4F24918E5B11
:100480009D4FFC0184918823D1F090E0880F991F43
:10049000FC01E859FE4FA591B491FC01E85DFD4FC8
:1004A000C591D491623071F49FB7F8943C91822F3A
:1004B000809583238C93E8812E2B28839FBFDF9127
:1004C000CF9108958FB7F894EC912E2B2C938FBF7A
:1004D000F6CFCF9380911702893021F08F3FC9F07A
:1004E000CF910895E8E8F2E0C491C7FDF9CF61E04B
:1004F00089E00E943802CC2309F4DEC0C23009F042
:10050000F2C08091B100887F84608093B10081EB5C
:100510007AC189E080931702E8E8F2E0C4918C2F59
:10052000CF3FF1F2C23009F468C060F4CC2379F116
:10053000C13009F444C087FDD3CF61E089E00E9457
:100540003802DCCFC43009F499C008F478C0C53053
:1005500091F7109220011092210180912101886071
:100560008093210180912101816080932101EBE43E
:10057000F2E0E491F0E0EE0FFF1FE85DFD4F8591A2
:100580009491EBEEF1E0E491E093D405B0CF14BC8C
:1005900015BC84B5826084BD85B5816085BDEBE402
:1005A000F2E0E491F0E0EE0FFF1FE85DFD4F859172
:1005B0009491EBEEF1E0E491E093DB0598CF10929B
:1005C000800010928100809181008860809381007A
:1005D00080918100816080938100EBE4F2E0E491FE
:1005E000F0E0EE0FFF1FE85DFD4F85919491EBEE7B
:1005F000F1E0E491E093DA057ACF1092B000109226
:10060000B1008091B00082608093B0008091B10011
:1006100081608093B100EBE4F2E0E491F0E0EE0F52
:10062000FF1FE85DFD4F859194919093D9058093CC
:10063000D805EBEEF1E0E491E093D70558CF1092A6
:1006400090001092910080919100886080939100B9
:1006500080919100816080939100EBE4F2E0E4915D
:10066000F0E0EE0FFF1FE85DFD4F85919491EBEEFA
:10067000F1E0E491E093D605C3E039CF1092A000F9
:100680001092A1008091A10088608093A1008091C8
:10069000A10081608093A100EBE4F2E0E491F0E03E
:1006A000EE0FFF1FE85DFD4F85919491EBEEF1E0B9
:1006B000E491E093D5051BCF85B5887F836085BD28
:1006C00081EB87BD8FEF9FEFDC018093F005909366
:1006D000F105A093F205B093F30580916E0082605E
:1006E00080936E00FDCEC130E9F480918100887F57
:1006F00081608093810083EA9CE2909389008093DB
:1007000088008FEF9FEFDC018093EC059093ED055F
:10071000A093EE05B093EF0580916F008260809307
:100720006F00DECEC330E9F480919100887F816054
:100730008093910083EA9CE29093990080939800C3
:100740008FEF9FEFDC018093E4059093E505A09384
:10075000E605B093E7058091710082608093710097
:10076000BFCEC430E9F48091A100887F816080937E
:10077000A10083EA9CE29093A9008093A8008FEFE8
:100780009FEFDC018093E0059093E105A093E205E3
:10079000B093E30580917200826080937200A0CED6
:1007A000C530E9F480912101887F81608093210127
:1007B00083EA9CE290932901809328018FEF9FEFB9
:1007C000DC018093DC059093DD05A093DE05B093FA
:1007D000DF058091730082608093730081CEC23008
:1007E00089F034F4CC2361F0C13009F079CE83CFA5
:1007F000C43009F4BECF0CF49DCFC530C9F270CE21
:1008000083EA5FCF83EA8093B3008FEF9FEFDC0131
:100810008093E8059093E905A093EA05B093EB0572
:10082000809170008260809370005ACE3FB7F89438
:100830008091D0059091D105A091D205B091D305BA
:1008400026B5A89B05C02F3F19F00196A11DB11D2B
:100850003FBFBA2FA92F982F8827BC01CD01620F67
:10086000711D811D911D42E0660F771F881F991F22
:100870004A95D1F708958F929F92AF92BF92CF92EF
:10088000DF92EF92FF924B015C010E9416046B0114
:100890007C010E9416046C197D098E099F09683E2F
:1008A000734081059105A8F321E0821A9108A108FF
:1008B000B10888EEC80E83E0D81EE11CF11C81143B
:1008C0009104A104B10429F7FF90EF90DF90CF903D
:1008D000BF90AF909F908F9008952FB7F89460913C
:1008E000CC057091CD058091CE059091CF052FBF9D
:1008F00008950E946D046093C7057093C8058093A6
:10090000C9059093CA050895089508950895089516
:100910009091170289130DC0E8E8F2E0E4919FEF8F
:1009200090931702E230E1F038F4EE2381F0E130E9
:1009300089F060E00C940A02E43049F110F1E530EE
:10094000C1F7909173009D7F90937300F2CF109246
:100950006E00EFCF90916F009D7F90936F00E9CF75
:10096000909170009D7F9093700091E09093B00003
:100970009091B100987F94609093B1001092B30071
:10098000D8CF909171009D7F90937100D2CF9091BC
:1009900072009D7F90937200CCCFAF92BF92CF92A6
:1009A000DF92EF92FF920F931F93CF93DF936C012F
:1009B0007B018B01040F151FEB015E01AE18BF0810
:1009C000C017D10759F06991D601ED91FC910190C2
:1009D000F081E02DC6011995892B79F7C501DF91CA
:1009E000CF911F910F91FF90EF90DF90CF90BF902C
:1009F000AF900895FC01448155816081718186E04A
:100A000096E00C94CD0420912505260F3327331F43
:100A100021323105ECF420916E05FC0190E080E07C
:100A2000243069F082E00895A09125052191AC0160
:100A30004B5F5A4FA40FB52FB11D2C93019686170B
:100A400098F380912505680F6093250580E008954F
:100A500081E0089510926E0581E080936D051092FB
:100A6000480561E084E10E940A0261E085E10E949C
:100A70000A02E9EBF0E080818E7F808380818D7FA8
:100A8000808388E48093B80085E48093BC00089557
:100A9000CF93DF9391E0909304058823B9F0C09140
:100AA000B800D091BA008091BC008A7B8093BC00D2
:100AB00060E084E10E940A0260E085E10E940A028F
:100AC0000E942A05D093BA00C093B800DF91CF915D
:100AD00008950895E0919D0580919C05E81730F4F4
:100AE000F0E0EC51FB4F808190E008958FEF9FEF95
:100AF000089590919D0580919C052FEF3FEF9817E9
:100B000048F4E92FF0E0EC51FB4F208130E09F5F8B
:100B100090939D05C901089580919C0590919D0534
:100B2000891B990B0895CF92DF92EF92FF920F935A
:100B30001F93CF93DF937C01CB018A012091740531
:100B4000222389F0EB016B01C40ED51ECC15DD0507
:100B500069F06991D701ED91FC910190F081E02D50
:100B6000C7011995F3CF642F0E940305C801DF91D7
:100B7000CF911F910F91FF90EF90DF90CF9008954C
:100B8000CF93DF931F92CDB7DEB7698320917405B1
:100B90002223F9F020919A05203258F021E030E02C
:100BA000FC013383228390E080E00F90DF91CF91AE
:100BB000089580919B05E82FF0E0EB58FA4F99815A
:100BC00090838F5F80939B0580939A0581E090E0EE
:100BD000ECCF61E0CE0101960E940305F7CFCF92E2
:100BE000DF92EF92FF920F931F93CF93DF93FC015D
:100BF000C48121E020937405C093950510929B0554
:100C000010929A058485682B84EF95E00E94C005B8
:100C1000D0919A05D13208F092C00E9416046B015F
:100C20007C0180916E05811165C082E080936E0524
:100C300081E080936D058FEF80936C0510926B05BA
:100C4000D0936A05A5E7B5E0EAE4F5E080E0D813C3
:100C500085C01092490580914905CC0FC82BC093DF
:100C6000490580914805813009F07CC01092480503
:100C70000E9416046B017C01809149058093BB00A2
:100C80008091700590917105A0917205B0917305E6
:100C9000892B8A2B8B2B99F00E94160400917005EA
:100CA0001091710520917205309173056C197D09C1
:100CB0008E099F090617170728073907E0F1809169
:100CC000BC0083FDD9CF85EC8093BC000E94160444
:100CD0006B017C0180916E05823009F445C08091E2
:100CE0006C058F3F61F180916C05803241F18091FC
:100CF0006C0525C08091700590917105A0917205D9
:100D0000B0917305892B8A2B8B2B09F48ACF0E9413
:100D100016040091700510917105209172053091B3
:100D200073056C197D098E099F0906171707280797
:100D3000390708F076CF80916F050E944805109220
:100D40009B0510929A0510927405DF91CF911F9127
:100D50000F91FF90EF90DF90CF9008959D91919328
:100D60008F5F75CF85EEB0CF809170059091710542
:100D7000A0917205B0917305892B8A2B8B2B09F4F6
:100D8000A9CF0E9416040091700510917105209161
:100D90007205309173056C197D098E099F0906173C
:100DA00017072807390708F095CFC5CF90E080E0F6
:100DB00008954F925F926F927F928F929F92AF921F
:100DC000BF92CF92DF92EF92FF92B82E0E946902FB
:100DD00061E08DE00E940A02C0901302D0901402DC
:100DE000E0901502F0901602BB20D1F1A3E0B0E034
:100DF000A70196010E94411F4B015C010E946D04F6
:100E00002B013C010E946D0464197509860997093C
:100E1000681579058A059B05A8F389E00E94880476
:100E200060E08DE00E940A020E946D044B015C01AB
:100E30000E946D04681979098A099B096C157D0562
:100E40008E059F05A8F3FF90EF90DF90CF90BF90A5
:100E5000AF909F908F907F906F905F904F9008958C
:100E600046015701CBCF0C94FA040F931F93CF93F5
:100E70008C01C62F0E94EF056C2F6460C8010E9490
:100E8000EF056C2F6B7FC8010E94EF0583EC90E0AB
:100E90000197F1F7CF911F910F9108950F931F9331
:100EA000CF93DF938C01D62FC42F607F642B0E94D9
:100EB000350780E1D89FB00111246C2BC801DF9168
:100EC000CF911F910F910C94350740E0682F86E079
:100ED00096E00C944E0781E00E9465078BE39FE14A
:100EE0000197F1F780910F06882319F080E80C94A0
:100EF000650708950C946B0789E00E94880460E000
:100F00008DE00E940A021092120660E086E096E0F0
:100F10000E94EF0580910C068B7F80930C06886001
:100F20000E94650729E734E0309301022093000214
:100F300080916A008C7F80936A00EC9A3093030260
:100F40002093020280916A00837F80936A00ED9A69
:100F500030930B0220930A02809169008F73809373
:100F60006900EB9A83B7817F846083BF83B7816018
:100F700083BF889583B78E7F83BFED9886E894E022
:100F80009093030280930202EB9890930B0280935C
:100F90000A02309301022093000280916A008C7F44
:100FA000826080936A00EC9A80910C06982F94607E
:100FB00090930C068C600E94650788E0809312066F
:100FC00060E086E096E00E94EF0583E00E94E10188
:100FD000892B91F483E00E94E101892B39F465E0CB
:100FE00070E080E090E00E943B04F4CF62E370E0A8
:100FF00080E090E00E943B040E946D046093C7056E
:101000007093C8058093C9059093CA050E946D042A
:101010006093B6057093B7058093B8059093B905B2
:101020000895CF93DF9300D000D01F921F92CDB7C9
:10103000DEB798E0E2E2F2E0DE01119601900D9257
:101040009A95E1F7660F771FE1E0F0E0EC0FFD1FE6
:10105000E60FF71F9081890F806828960FB6F894E5
:10106000DEBF0FBECDBFDF91CF910C94650741E08D
:101070000E944E0781E090E008958F929F92AF9278
:10108000BF920F931F93CF93DF93CDB7DEB7A19796
:101090000FB6F894DEBF0FBECDBF19A2423008F4E0
:1010A0004AE08E010F5D1F4F842E912CB12CA12C94
:1010B000A50194010E94541FE62FB901CA01EA302C
:1010C00044F5E05DD801EE938D01232B242B252BD5
:1010D00079F790E080E0109769F0FD010190002021
:1010E000E9F73197AF014A1B5B0BBD0186E096E043
:1010F0000E94CD04A1960FB6F894DEBF0FBECDBFFF
:10110000DF91CF911F910F91BF90AF909F908F90E3
:101110000895E95CD7CFCF92DF92EF92FF926C01F6
:10112000990FEE08FF08F7FE16C041E06DE286E079
:1011300096E00E944E0766277727CB016C197D0940
:101140008E099F094AE00E943D080196FF90EF90AA
:10115000DF90CF9008954AE0C701B601FF90EF906D
:10116000DF90CF900C943D08FC0101900020E9F73E
:101170003197AF01481B590BBC0186E096E00C94F7
:10118000CD04CF93DF93EC010E94FA040C80DD8143
:10119000C02DC031D10534F48CE892E00E94B4082F
:1011A0002196F7CFDF91CF91089570E060E08AE05B
:1011B00090E00E9411088091BA059091BB050A97B2
:1011C00024F48CE892E00E94B4088091BA059091D2
:1011D000BB058436910524F48CE892E00E94B408A3
:1011E0008091BA059091BB050E948B0885E792E03B
:1011F0000C94B408CF93DF9370E060E090E080E05F
:101200000E94110889E792E00E94B40883E196E009
:101210000E94FA04C0911706D0911806C630D10575
:1012200034F48CE892E00E94B4082196F7CFDF9165
:10123000CF910C94D508FC0124813581232B39F4FE
:1012400021E0FB018081882349F020E007C08081F4
:1012500091810E94C92121E0892BB9F7822F08953D
:101260000F931F93CF93DF938C01EB01FC018081DF
:1012700091810097E1F06881798161157105A9F08C
:10128000428153812C813D814217530770F00E94A7
:10129000D2218C819D81F801958384831D821C82DB
:1012A000DF91CF911F910F9108950E945620888160
:1012B0009981F801918380838A819B8193838283C2
:1012C0008C819D8195838483198218821B821A8266
:1012D000E5CFCF93DF93EC0188819981009711F0DE
:1012E0000E945620198218821D821C821B821A823B
:1012F000DF91CF910895FC0180819181009711F0D9
:101300000C94562008950F931F93CF93DF93EC0115
:1013100088819981009759F02A813B8126173707E8
:1013200030F081E0DF91CF911F910F9108958B01F3
:101330006F5F7F4F0E94DF20009759F09983888369
:101340001B830A832C813D81232B59F7FC011082DA
:10135000E8CF80E0E7CFEF92FF920F931F93CF93F8
:10136000DF936115710541F480E0DF91CF911F910A
:101370000F91FF90EF90089541155105B1F07B0159
:10138000EC010C811D81040F151FB8010E94830917
:10139000882351F3288139818C819D81B701820F87
:1013A000931F0E94D2211D830C8381E0DECFFC01BC
:1013B00001900020E9F73197AF01481B590BBC01A0
:1013C00083E196E00C94AB09EF92FF920F931F9389
:1013D000CF93DF93EC017B018A01BA010E9483095C
:1013E00081110BC0CE010E946909CE01DF91CF911E
:1013F0001F910F91FF90EF9008951D830C83B7010B
:10140000888199810E94D221F0CFFB0101900020B8
:10141000E9F73197AF01461B570B0C94E4096DE7D0
:1014200072E080E096E00E94050A62E070E090E0E1
:1014300080E00E94110880E096E00C94FA04FB0121
:10144000DC0111961C921E9213961C921E9212970A
:1014500015961C921E9214978617970749F0608183
:1014600071816115710521F0448155810C94E40965
:101470000895FC0111821082138212821582148257
:101480006115710551F0FB0101900020E9F73197DA
:10149000AF01461B570B0C94E4090895AF92BF921D
:1014A000CF92DF92EF92FF920F931F93CF93DF9330
:1014B0006C015B017A0189012417350720F48F2D17
:1014C0007901042F182F6DE872E0C6010E94390AD5
:1014D000D5011496CD91DC91EC16FD06E0F40C17C5
:1014E0001D0708F4E801D501ED91FC911197EC0F6F
:1014F000FD1F108110826D917C916E0D7F1DC601C4
:1015000061157105A1F00E94050AF50180819181A4
:10151000C80FD91F1883C601DF91CF911F910F917A
:10152000FF90EF90DF90CF90BF90AF9008950E9412
:101530006909EBCF1F93CF93DF9300D000D0CDB7D5
:10154000DEB7182F209104063091050641E050E0E7
:1015500060E076E0CE0101960E944E0ABE016F5F08
:101560007F4F80E096E00E943009CE0101960E94F4
:101570007B0919831A8241E050E0BE016F5F7F4F03
:1015800080E096E00E94AB0962E070E090E080E0CD
:101590000E94110880E096E00E94FA0426960FB699
:1015A000F894DEBF0FBECDBFDF91CF911F9108959C
:1015B000CF93DF9300D000D0CDB7DEB762E070E00C
:1015C00090E080E00E94110869E872E0CE01019687
:1015D0000E94390ACE0101960E943307CE0101967E
:1015E0000E947B098091BA059091BB050A9774F41B
:1015F0006CE872E0CE0101960E94390ACE01019694
:101600000E943307CE0101960E947B098091BA05A2
:101610009091BB050E948B086EE872E0CE010196A6
:101620000E94390ACE0101960E943307CE0101962D
:101630000E947B0926960FB6F894DEBF0FBECDBF81
:10164000DF91CF9108950F931F93CF93DF9300D035
:1016500000D0CDB7DEB70091E2041091E30461E061
:1016600070E090E080E0033011050CF057C00E945C
:10167000110867EA72E0012B11F467E972E0CE010C
:1016800001960E94390ACE0101960E943307CE01CD
:1016900001960E947B0962E070E090E080E00E9489
:1016A00011088091E2049091E30467EC72E00197E5
:1016B00011F467EB72E0CE0101960E94390ACE0167
:1016C00001960E943307CE0101960E947B0963E0D8
:1016D00070E090E080E00E9411088091E204909117
:1016E000E30467EE72E0029711F467ED72E0CE0159
:1016F00001960E94390ACE0101960E943307CE015D
:1017000001960E947B0926960FB6F894DEBF0FBEA5
:10171000CDBFDF91CF911F910F9108950E941108C5
:1017200067EC72E0CE0101960E94390ACE01019663
:101730000E943307CE0101960E947B0962E070E0AF
:1017400090E080E00E94110867EE72E0CE01019601
:101750000E94390ACE0101960E943307CE010196FC
:101760000E947B0963E070E090E080E00E94110835
:1017700067EF72E0BCCF0F931F93CF93DF9300D03E
:1017800000D0CDB7DEB70091E2041091E30470E021
:1017900060E090E080E0043011050CF073C00E941E
:1017A000110869E173E0012B11F467E073E0CE01E9
:1017B00001960E94390ACE0101960E943307CE019C
:1017C00001960E947B0961E070E090E080E00E9459
:1017D00011088091E2049091E3046DE373E00197B6
:1017E00011F46BE273E0CE0101960E94390ACE013A
:1017F00001960E943307CE0101960E947B0962E0A8
:1018000070E090E080E00E9411088091E2049091E5
:10181000E30461E673E0029711F46FE473E0CE0134
:1018200001960E94390ACE0101960E943307CE012B
:1018300001960E947B0963E070E090E080E00E94E6
:1018400011088091E2049091E30465E873E0039746
:1018500011F463E773E0CE0101960E94390ACE01CC
:1018600001960E943307CE0101960E947B092696BD
:101870000FB6F894DEBF0FBECDBFDF91CF911F91A1
:101880000F9108950E9411086DE373E0CE01019657
:101890000E94390ACE0101960E943307CE010196BB
:1018A0000E947B0961E070E090E080E00E941108F6
:1018B00061E673E0CE0101960E94390ACE010196DD
:1018C0000E943307CE0101960E947B0962E070E01E
:1018D00090E080E00E94110865E873E0CE01019677
:1018E0000E94390ACE0101960E943307CE0101966B
:1018F0000E947B0963E070E090E080E00E941108A4
:101900008091E2049091E30469EA73E0049709F09E
:10191000A2CF67E973E09FCF4F925F926F927F9261
:10192000AF92BF92CF92DF92EF92FF920F931F93ED
:10193000CF93DF9300D000D0CDB7DEB70E947A07F7
:101940001092E3041092E2048BE00E94E1018C010A
:101950000E946D046093C7057093C8058093C90504
:101960009093CA050E94BB0B82E00E94E101892B83
:1019700039F46AE070E080E090E00E943B04F4CF2C
:1019800068EC70E080E090E00E943B0434E0C32EFD
:10199000D12C0E946D042B013C018091C7059091D0
:1019A000C805A091C905B091CA05A3019201281BE1
:1019B000390B4A0B5B0BDA01C9017801813197427F
:1019C000A105B10520F10E947C070E94BB0B82E0BB
:1019D0000E94E101892B39F46AE070E080E090E038
:1019E0000E943B04F4CF68EC70E080E090E00E943D
:1019F0003B048BE00E94E1017C010E946D04609336
:101A0000C7057093C8058093C9059093CA058BE0FC
:101A10000E94E1018C01E816F90651F14092C705D8
:101A20005092C8056092C9057092CA05892B01F5CC
:101A30008CE00E94E1012091E2043091E304892BC3
:101A400009F458C02F5F3F4F253031052CF43093F7
:101A5000E3042093E20404C01092E3041092E20431
:101A60000E94BB0B62E370E080E090E00E943B04C8
:101A700082E00E94E101892B09F08BCF4092C705DB
:101A80005092C8056092C9057092CA058091E2041F
:101A90009091E3049093C4058093C305843091052D
:101AA00091F50E947A0761E070E090E080E00E948A
:101AB00011086BEB73E0CE0101960E94390ACE014A
:101AC00001960E943307CE0101960E947B0968EEC1
:101AD00073E080E090E00E943B040E947A0788E176
:101AE00098E00FB6F894A895809360000FBE90938D
:101AF0006000FFCF2150310937FFA9CFD092E30416
:101B0000C092E204ADCF029709F0E5C10E947A07C6
:101B100070E060E090E080E00E94110869EC73E002
:101B2000CE0101960E94390ACE0101960E94330728
:101B3000CE0101960E947B091092E3041092E20408
:101B40000E946D046093C7057093C8058093C90512
:101B50009093CA058BE00E94E1018C010E94230B47
:101B60006CE271E080E090E00E943B0482E00E9421
:101B7000E101892B29F46AE070E080E090E0F4CF85
:101B800068EC70E080E090E00E943B0423E0C22E0D
:101B9000D12C0E946D042B013C018091C7059091CE
:101BA000C805A091C905B091CA05A3019201281BDF
:101BB000390B4A0B5B0BDA01C9017801813197427D
:101BC000A105B105D0F10E947C070E947A0770E060
:101BD00060E090E080E00E94110869EC73E0CE01C3
:101BE00001960E94390ACE0101960E943307CE0168
:101BF00001960E947B090E94230B82E00E94E10172
:101C0000892B39F46AE070E080E090E00E943B04A8
:101C1000F4CF68EC70E080E090E00E943B048BE041
:101C20000E94E1017C010E946D046093C7057093DE
:101C3000C8058093C9059093CA058BE00E94E10115
:101C40008C01E816F90649F14092C7055092C80583
:101C50006092C9057092CA05892BF9F48CE00E9444
:101C6000E1012091E2043091E304892B09F46DC075
:101C70002F5F3F4F3093E3042093E204243031057B
:101C800024F01092E3041092E2040E94230B62E31A
:101C900070E080E090E00E943B0482E00E94E1015D
:101CA000892B09F076CF4092C7055092C805609203
:101CB000C9057092CA058091E2049091E3048230D4
:101CC000910509F04FC083E090E09093A3058093C5
:101CD000A2050E947A0770E060E090E080E00E9438
:101CE000110868ED73E0CE0101960E94390ACE0119
:101CF00001960E943307CE0101960E947B098CE079
:101D000090E09093BB058093BA050E946D046093A8
:101D1000C7057093C8058093C9059093CA058BE0E9
:101D20000E94E1018C010E94D80A6CE271E080E01F
:101D300090E00E943B0482E00E94E101892BC9F4FB
:101D40006AE070E080E090E0F4CF215031093093F8
:101D5000E3042093E20437FF98CFD092E304C092CB
:101D6000E20493CF8330910509F0AFCF82E090E099
:101D7000ACCF68EC70E080E090E00E943B0485E02E
:101D8000C82ED12C98E2A92EB12C0E946D042B01F3
:101D90003C018091C7059091C805A091C905B091FB
:101DA000CA05A3019201281B390B4A0B5B0BDA0110
:101DB000C901780181319742A105B105D0F10E9496
:101DC0007C070E947A0770E060E090E080E00E946B
:101DD000110868ED73E0CE0101960E94390ACE0128
:101DE00001960E943307CE0101960E947B090E9452
:101DF000D80A82E00E94E101892B39F46AE070E0A0
:101E000080E090E00E943B04F4CF68EC70E080E05A
:101E100090E00E943B048BE00E94E1017C010E9463
:101E20006D046093C7057093C8058093C9059093AE
:101E3000CA058BE00E94E1018C01E816F90649F120
:101E40004092C7055092C8056092C9057092CA05B4
:101E5000892BF9F48CE00E94E1012091BA053091C0
:101E6000BB05892B09F49FC02F5F3F4F3093BB0503
:101E70002093BA052932310524F0B092BB05A09217
:101E8000BA050E94D80A62E370E080E090E00E9408
:101E90003B0482E00E94E101892B09F076CF409259
:101EA000C7055092C8056092C9057092CA05609135
:101EB000BA057091BB0580EB94E00E948A1FCB01AC
:101EC000770FAA0BBB0B8093130290931402A0937D
:101ED0001502B09316020E947A0761E070E090E06C
:101EE00080E00E9411088091C3059091C40500977D
:101EF00009F068C067EE73E0CE0101960E94390ACE
:101F0000CE0101960E943307CE0101960E947B0903
:101F100086E990E0A0E0B0E0809313029093140271
:101F2000A0931502B09316021092BB051092BA0549
:101F30006CED75E080E090E00E943B040E947A071F
:101F40006DE872E083E196E00E94050A1092B10507
:101F500081E080931202809311020E940F0A8BE0AD
:101F60000E94E1019093C6058093C5058091C30549
:101F70009091C405029711F00E94FA0826960FB6B8
:101F8000F894DEBF0FBECDBFDF91CF911F910F91AF
:101F9000FF90EF90DF90CF90BF90AF907F906F90C9
:101FA0005F904F900895215031093093BB052093E5
:101FB000BA05253031050CF064CFD092BB05C09234
:101FC000BA055FCF8130910509F565EF73E0CE0169
:101FD00001960E94390ACE0101960E943307CE0174
:101FE00001960E947B098BE490E0A0E0B0E0809332
:101FF000130290931402A0931502B093160280E18D
:1020000090E09093BB058093BA0592CF8230910502
:1020100079F460E074E0CE0101960E94390ACE01A5
:1020200001960E943307CE0101960E947B0980CF62
:10203000039709F07DCF6FE074E0CE0101960E9416
:10204000390ACE0101960E943307CE0101960E9403
:102050007B0984E690E0A0E0B0E0809313029093C7
:102060001402A0931502B09316028CE090E0C9CF41
:1020700085ED8093BC008091700590917105A091D1
:102080007205B09173050796A11DB11D23E0B695A9
:10209000A795979587952A95D1F72091BC0024FDA7
:1020A00003C010926E05089540917005509171051E
:1020B0006091720570917305452B462B472B69F390
:1020C0000097A105B10541F02AE22A95F1F700C079
:1020D0000197A109B109E1CF80916F050C944805E2
:1020E0001F920F920FB60F9211242F933F938F934D
:1020F0009F93AF93BF938091CC059091CD05A09114
:10210000CE05B091CF053091CB0523E0230F2D37BD
:1021100058F50196A11DB11D2093CB058093CC05E8
:102120009093CD05A093CE05B093CF058091D005B7
:102130009091D105A091D205B091D3050196A11D32
:10214000B11D8093D0059093D105A093D205B09393
:10215000D305BF91AF919F918F913F912F910F9098
:102160000FBE0F901F90189526E8230F0296A11D11
:10217000B11DD2CF1F920F920FB60F9211240BB642
:102180000F922F933F934F935F936F937F938F9310
:102190009F93AF93BF93EF93FF93E0910E02F09163
:1021A0000F021995FF91EF91BF91AF919F918F9180
:1021B0007F916F915F914F913F912F910F900BBE47
:1021C0000F900FBE0F901F9018951F920F920FB691
:1021D0000F9211240BB60F922F933F934F935F935F
:1021E0006F937F938F939F93AF93BF93EF93FF93DF
:1021F000E0910C02F0910D021995FF91EF91BF91C2
:10220000AF919F918F917F916F915F914F913F918E
:102210002F910F900BBE0F900FBE0F901F9018952F
:102220001F920F920FB60F9211240BB60F922F939D
:102230003F934F935F936F937F938F939F93AF934E
:10224000BF93EF93FF93E0910202F091030219957F
:10225000FF91EF91BF91AF919F918F917F916F917E
:102260005F914F913F912F910F900BBE0F900FBE3A
:102270000F901F9018951F920F920FB60F92112476
:102280000BB60F922F933F934F935F936F937F9370
:102290008F939F93AF93BF93EF93FF93E0910002CF
:1022A000F09101021995FF91EF91BF91AF919F912C
:1022B0008F917F916F915F914F913F912F910F90EF
:1022C0000BBE0F900FBE0F901F9018951F920F928C
:1022D0000FB60F9211240BB60F922F933F934F938B
:1022E0005F936F937F938F939F93AF93BF93EF937E
:1022F000FF93E0910A02F0910B021995FF91EF9183
:10230000BF91AF919F918F917F916F915F914F910D
:102310003F912F910F900BBE0F900FBE0F901F900B
:1023200018951F920F920FB60F9211240BB60F92B1
:102330002F933F934F935F936F937F938F939F93CD
:10234000AF93BF93EF93FF93E0910802F0910902DE
:102350001995FF91EF91BF91AF919F918F917F91CF
:102360006F915F914F913F912F910F900BBE0F9006
:102370000FBE0F901F9018951F920F920FB60F92DD
:1023800011240BB60F922F933F934F935F936F934C
:102390007F938F939F93AF93BF93EF93FF93E091BE
:1023A0000602F09107021995FF91EF91BF91AF914D
:1023B0009F918F917F916F915F914F913F912F915D
:1023C0000F900BBE0F900FBE0F901F9018951F928D
:1023D0000F920FB60F9211240BB60F922F933F93CB
:1023E0004F935F936F937F938F939F93AF93BF931D
:1023F000EF93FF93E0910402F09105021995FF918C
:10240000EF91BF91AF919F918F917F916F915F916C
:102410004F913F912F910F900BBE0F900FBE0F90D9
:102420001F9018951F920F920FB60F9211240BB6A2
:102430000F922F933F934F935F936F937F938F935D
:102440009F93AF93BF93EF93FF938091E805909193
:10245000E905A091EA05B091EB05892B8A2B8B2B1E
:10246000E1F19091D705E091D805F091D9058081EF
:10247000892780838091E8059091E905A091EA057C
:10248000B091EB05181619061A061B069CF48091EC
:10249000E8059091E905A091EA05B091EB05019757
:1024A000A109B1098093E8059093E905A093EA0595
:1024B000B093EB05FF91EF91BF91AF919F918F91F9
:1024C0007F916F915F914F913F912F910F900BBE34
:1024D0000F900FBE0F901F901895809117020E94C9
:1024E0008804E8CF1F920F920FB60F9211240BB6FB
:1024F0000F922F933F934F935F936F937F938F939D
:102500009F93AF93BF93EF93FF938091B900887F20
:10251000803609F44DC008F040C0883209F4A9C0E3
:1025200028F5803109F49DC0C8F4882309F4FBC064
:10253000883009F496C0FF91EF91BF91AF919F91C0
:102540008F917F916F915F914F913F912F910F905C
:102550000BBE0F900FBE0F901F901895883109F495
:1025600088C0803241F780936C0514C0803409F430
:102570009DC040F48033B9F38833E9F680936C054D
:1025800085ECB0C0803509F485C0883509F496C063
:10259000883489F60E943810CECF883909F48CC06F
:1025A00038F5883729F050F4883611F0803719F65D
:1025B00083E080936E051092470557C0883809F470
:1025C0007BC0803919F0803809F0B5CF809147057C
:1025D000803208F071C0E091470581E08E0F809352
:1025E00047058091BB00F0E0E95DFA4F80833DC074
:1025F000803B39F0E0F4803A09F479C0883A09F078
:102600009ACF84E080936E051092260510922505DE
:10261000E0919805F0919905199580912505811112
:102620000FC081E0809325051092050509C0803C0C
:1026300009F4A6CF883C09F4A3CF883B09F07BCFEF
:10264000E091260581E08E0F80932605F0E0EB5F98
:10265000FA4F80818093BB009091260580912505DB
:1026600029C0809149058093BB0085EC8093BC0014
:1026700062CF90916B0580916A05981758F5E091AB
:102680006B0581E08E0F80936B05F0E0E65BFA4FFF
:102690008081E9CFE0916B0581E08E0F80936B051F
:1026A0008091BB00F0E0E65BFA4F808390916B0570
:1026B00080916A059817C8F285E8D8CFE0916B053C
:1026C00081E08E0F80936B058091BB00F0E0E65BAC
:1026D000FA4F808380916D0581115CCF81E08093FA
:1026E000480584EA8093BC0010926E0524CF85ECE7
:1026F0008093BC0010926E0580914705803230F4C3
:10270000E0914705F0E0E95DFA4F108260914705DE
:1027100070E0E0919605F091970587E295E01995B4
:102720001092470508CF10926C0534CFE4EFF5E026
:102730001382128288EE93E0A0E0B0E08483958358
:10274000A683B7838BE592E0918380836DE872E086
:1027500083E196E00E94390AE6E0F6E013821282F5
:102760008DE692E091838083118687E2848380E105
:10277000828784E0838714866DE772E080E096E0CC
:102780000C94390ACF93DF93CDB7DEB766970FB6B7
:10279000F894DEBF0FBECDBF789484B5826084BD4F
:1027A00084B5816084BD85B5826085BD85B5816055
:1027B00085BD80916E00816080936E0010928100D3
:1027C000809181008260809381008091810081608E
:1027D000809381008091800081608093800080914F
:1027E000B10084608093B1008091B00081608093DB
:1027F000B00080919100826080939100809191005F
:10280000816080939100809190008160809390001E
:102810008091A10082608093A1008091A1008160DD
:102820008093A1008091A00081608093A00080919E
:102830002101826080932101809121018160809338
:1028400021018091200181608093200180917A0094
:10285000846080937A0080917A00826080937A000D
:1028600080917A00816080937A0080917A008068FC
:1028700080937A001092C1000FB6F894A8958091C9
:102880006000886180936000109260000FBE62E07B
:1028900082E00E94380262E08BE00E94380262E02F
:1028A0008CE00E94380262E083E00E94380262E01D
:1028B00087E00E94380262E082E10E94380261E013
:1028C00089E00E94380261E08DE00E943802809128
:1028D0007B00877F80937B0080E480937C008091E5
:1028E0007A00806480937A0080917A0086FDFCCF24
:1028F0006091780070917900072E000C880B990B7D
:10290000611571058105910511F00E94F51D89E79A
:1029100094E0909301028093000280916A008C7F82
:10292000826080936A00EC9AED9886E894E0909338
:10293000030280930202EB9890930B0280930A02A9
:1029400010929D0510929C0510929B0510929A057D
:102950000E942A0584E894E0909399058093980555
:1029600085E894E0909397058093960510920B0666
:1029700080911106823018F098E090930B068093B6
:102980000E0662E370E080E090E00E943B046091FC
:10299000120686E096E00E94EF0568EE73E080E0A4
:1029A00090E00E943B0460E386E096E00E943507D9
:1029B0000BE416E4C8010197F1F760E386E096E0C6
:1029C0000E943507C8010197F1F760E386E096E0C1
:1029D0000E94350783E592E00197F1F760E286E017
:1029E00096E00E94350780910B0680620E94650781
:1029F00084E080930C068CE00E9465070E946B07C0
:102A000082E080930D0686E00E94650782E00E94C6
:102A100065078BE39FE10197F1F788E08093120649
:102A200060E086E096E00E94EF0570E060E090E0F4
:102A300080E00E94110880E294E00E94B40862E005
:102A400070E090E080E00E94110881E394E00E9431
:102A5000B40863E070E090E080E00E94110881E437
:102A600094E00E94B40868E873E180E090E00E947E
:102A70003B040E946D046093C7057093C805809362
:102A8000C9059093CA050E948C0C80E1282E312C38
:102A90000E946D042B013C0182E00E94E101892B20
:102AA00009F04DC04092C7055092C8056092C90513
:102AB0007092CA058BE00E94E1012091C50530911A
:102AC000C6058217930761F04092C7055092C8056A
:102AD0006092C9057092CA059093C6058093C5059A
:102AE000E090C305F090C40522E0E216F10441F441
:102AF0004092C7055092C8056092C9057092CA05F8
:102B00008091C7059091C805A091C905B091CA05EB
:102B1000A3019201281B390B4A0B5B0BDA01C90197
:102B200081319742A105B105E8F00E947C0780E061
:102B300090E0892B09F4ACCF0E940000A6CF83E07F
:102B40000E94E101892B09F4ADCF87E00E94E101E9
:102B5000892B09F4A7CF82E10E94E101892B09F4B6
:102B6000A1CFA8CF82E00E94E101892B09F029C101
:102B70008091C2058111FFC04092BE055092BF05F1
:102B80006092C0057092C10581E08093C20542E069
:102B9000E416F10409F0E3C28BE00E94E1017C013C
:102BA0008091C5059091C605E816F90669F1E11412
:102BB000F10451F58CE00E94E1012091BA053091B9
:102BC000BB05892B09F407C12F5F3F4F293231051F
:102BD0000CF0FAC03093BB052093BA056091BA059A
:102BE0007091BB0580EB94E00E948A1FCB01770FA8
:102BF000AA0BBB0B8093130290931402A0931502AF
:102C0000B09316020E94D508F092C605E092C50561
:102C10000E946D046B017C018091AC0581115AC04A
:102C200070E060E090E080E00E94110862E574E0EE
:102C3000CE0101960E94390ACE0101960E94C10878
:102C4000CE0101960E947B090E94D50861E070E0E8
:102C500090E080E00E9411086DE872E0CE010196DC
:102C60000E94390ACE0101960E94C108CE01019648
:102C70000E947B090E940F0A63E070E090E080E010
:102C80000E9411086DE872E0CE0101960E94390A97
:102C9000CE0101960E94C108CE0101960E947B09D7
:102CA000C092A805D092A905E092AA05F092AB05C2
:102CB0001092A7051092A6051092A5051092A405E2
:102CC0008BE00E94E1019093C6058093C50581E0E9
:102CD0008093AC052091BA053091BB058CED95E051
:102CE000A0E0B0E02D303105E4F02C50310942E392
:102CF000429FC001439F900D1124813B54E09507F2
:102D000014F080EB94E0092E000CAA0BBB0B2CED09
:102D100035E040E050E0281B390B4A0B5B0BDA0131
:102D2000C9012091A5052111D1C14091A80550915B
:102D3000A9056091AA057091AB05C41AD50AE60AE7
:102D4000F70A8C159D05AE05BF0508F0BFC180913F
:102D5000A2059091A305009709F046C00E94A61D08
:102D60002AE130E040E050E00E94221F645C7D4F89
:102D7000DB018C9149C08091BE059091BF05A09167
:102D8000C005B091C105A3019201281B390B4A0B64
:102D90005B0BDA01C9018D3D9540A105B10508F431
:102DA000F6CE89E00E94880460E08DE00E940A026D
:102DB0001092C2051092BD051092BC050E948C0CA9
:102DC000B6CE1092C205E3CE88E290E09093BB05A8
:102DD0008093BA0503CF21503109253031050CF01D
:102DE000F9CE85E090E0F2CF8130910509F020C165
:102DF0000E94A61D2AE030E040E050E00E94221F21
:102E00006F5C7D4FFB0180818093100280911002E6
:102E10006EE674E0813409F4BAC066EA74E0823484
:102E200009F4B5C06DE574E0833409F4B0C06DEA0F
:102E300074E0843409F4ABC065EB74E0853409F4C4
:102E4000A6C06DEC74E0863409F4A1C063EB74E0B5
:102E5000873409F49CC060EA74E0883409F497C0B0
:102E60006EEA74E0893409F492C068E874E08A3448
:102E700009F48DC06DE674E08B3409F488C062E615
:102E800074E08C3409F483C06EE774E08D3409F487
:102E90007EC064EB74E08E3409F479C06DE774E0B1
:102EA0008F3409F474C067E674E0803509F46FC0AC
:102EB0006CE674E0813509F46AC06EE574E0823531
:102EC00009F465C067EA74E0833509F460C06FE710
:102ED00074E0843509F45BC062E774E0853509F479
:102EE00056C063ED74E0863509F451C067E774E0BD
:102EF000873509F44CC061E774E0883509F447C0B0
:102F000066E774E0893509F442C06CEA74E08A35FA
:102F1000F1F16BE774E08033D1F161E874E0813363
:102F2000B1F167E874E0823391F16DE874E08333C6
:102F300071F163E974E0843351F169E974E0853338
:102F400031F16FE974E0863311F165EA74E087339B
:102F5000F1F06BEA74E08833D1F061EB74E089330F
:102F6000B1F067EB74E08E3291F06EEB74E08C326E
:102F700071F065EC74E08F3351F06CEC74E08F32DB
:102F800031F062ED74E08D3311F06DE872E0CE0146
:102F90000D960E94390A61E070E090E080E00E94A6
:102FA000110868ED74E0CE0107960E94390A49893C
:102FB0005A896D857E85CE0107960E94AB098111E5
:102FC00004C0CE0107960E946909BE01695F7F4F68
:102FD000CE0101960E941F0ACE0101960E94C108EF
:102FE000CE0101960E947B09CE0107960E947B09C3
:102FF000BE01635F7F4FCE0101960E941F0AF12C34
:10300000E12C8D819E81E816F90608F048C089817F
:103010009A81009749F08E0D9F1DFC0180818E32B0
:10302000D1F580E00E94D906FFEFEF1AFF0AE9CF41
:103030008230910559F40E94A61D26E030E040E060
:1030400050E00E94221F665D7D4F92CE039709F0EB
:10305000DDCE0E94A61D22E030E040E050E00E945C
:10306000221F672B682B692B59F40E94A61D2AE1A9
:1030700030E040E050E00E94221F645C7D4FC2CEF1
:103080000E94A61D2AE030E040E050E00E94221F8E
:103090006F5C7D4F6DCE8D3239F681E0C3CFCE01AE
:1030A00001960E947B090E946D0460939E057093B7
:1030B0009F058093A0059093A10581E08093A505CD
:1030C0001092A405CE010D960E947B098091A50562
:1030D0008823E1F10E946D0400919E0510919F05E7
:1030E0002091A0053091A105601B710B820B930B01
:1030F000673971058105910548F18091A405811119
:1031000025C0809110020E949A0A8091A605909194
:10311000A70501969093A7058093A60505973CF017
:1031200080E20E949A0A1092A7051092A60581E0FB
:103130008093A4051092A5050E946D046093A805D4
:103140007093A9058093AA059093AB0582E00E9435
:10315000E101892B09F0EBCC1092AC05E8CC83E0BF
:10316000E114F10431F023E0E216F10409F078C330
:1031700082E10E94E1012091BD05009709F0A5C2FE
:1031800021114AC08091B6059091B705A091B8056C
:10319000B091B905B301A201481B590B6A0B7B0B17
:1031A000403151056105710520F4892B8A2B8B2B49
:1031B000B9F581E08093BD054092B2055092B30508
:1031C0006092B4057092B505EF2811F40E9469026F
:1031D00061E08DE00E940A028091B105882321F010
:1031E0000E940F0A1092B10580911202882381F08B
:1031F0006DE872E083E196E00E941B09811108C02E
:103200006DE872E083E196E00E94050A0E94FA08E8
:1032100010921202109211028091BD058111BEC15F
:103220008091BC058111BAC1809112028111B6C191
:103230008091B6059091B705A091B805B091B905F8
:10324000A3019201281B390B4A0B5B0BCA01B90180
:103250000E94031E6B017C016091130270911402A5
:1032600080911502909116020E94031E20E030E02A
:1032700040E650E40E94641E9B01AC01C701B60108
:103280000E94851F18160CF089C16DE872E083E179
:1032900096E00E941B09811181C163E176E0CE01B5
:1032A00001960E941F0A6EE674E0CE0101960E940C
:1032B0001B0911E4811168C166EA74E0CE01019630
:1032C0000E941B0912E481115FC16DE574E0CE011B
:1032D00001960E941B0913E4811156C16DEA74E046
:1032E000CE0101960E941B0914E481114DC165EBCA
:1032F00074E0CE0101960E941B0915E4811144C1BE
:103300006DEC74E0CE0101960E941B0916E4811158
:103310003BC163EB74E0CE0101960E941B0917E4E8
:10332000811132C160EA74E0CE0101960E941B094E
:1033300018E4811129C16EEA74E0CE0101960E9461
:103340001B0919E4811120C168E874E0CE010196DF
:103350000E941B091AE4811117C16DE674E0CE01C9
:1033600001960E941B091BE481110EC162E674E004
:10337000CE0101960E941B091CE4811105C16EE774
:1033800074E0CE0101960E941B091DE48111FCC06E
:1033900064EB74E0CE0101960E941B091EE48111CA
:1033A000F3C06DE774E0CE0101960E941B091FE493
:1033B0008111EAC067E674E0CE0101960E941B0904
:1033C00010E58111E1C06DED74E0CE0101960E941F
:1033D0001B0911E58111D8C06EE574E0CE0101969C
:1033E0000E941B0912E58111CFC067EA74E0CE018B
:1033F00001960E941B0913E58111C6C06FE774E0B6
:10340000CE0101960E941B0914E58111BDC062E73F
:1034100074E0CE0101960E941B0915E58111B4C02C
:1034200063ED74E0CE0101960E941B0916E581113F
:10343000ABC067E774E0CE0101960E941B0917E557
:103440008111A2C061E774E0CE0101960E941B09C0
:1034500018E5811199C066E774E0CE0101960E94DB
:103460001B0919E5811190C06CEA74E0CE01019648
:103470000E941B091AE5811187C06BE774E0CE0139
:1034800001960E941B0910E381117EC061E874E07F
:10349000CE0101960E941B0911E3811175C067E8F6
:1034A00074E0CE0101960E941B0912E381116CC0E9
:1034B0006DE874E0CE0101960E941B0913E38111AF
:1034C00063C063E974E0CE0101960E941B0914E316
:1034D00081115AC069E974E0CE0101960E941B096E
:1034E00015E3811151C06FE974E0CE0101960E948D
:1034F0001B0916E3811148C065EA74E0CE0101960C
:103500000E941B0917E381113FC06BEA74E0CE01F2
:1035100001960E941B0918E3811136C061EB74E02B
:10352000CE0101960E941B0919E381112DC067EBA2
:1035300074E0CE0101960E941B091EE2811124C095
:103540006EEB74E0CE0101960E941B091CE2811112
:103550001BC065EC74E0CE0101960E941B0981112D
:1035600012C06CEC74E0CE0101960E941B091FE2B0
:1035700081110AC062ED74E0CE0101960E941B0920
:103580001DE3811101C01FE3CE0101960E947B095A
:10359000812F0E949A0A81E0809312028091BD05DA
:1035A00081113EC08091BC0581113AC08091110209
:1035B000811136C080911202882391F18091B60565
:1035C0009091B705A091B805B091B905A3019201FA
:1035D000281B390B4A0B5B0BCA01B9010E94031E61
:1035E0006B017C01609113027091140280911502AD
:1035F000909116020E94031E20E030E040EE50E45D
:103600000E94641E9B01AC01C701B6010E94851F88
:10361000181634F480E20E949A0A81E08093110225
:103620008091BD05811130C08091BC0581112CC0F5
:103630008091B105811128C08091B6059091B705A0
:10364000A091B805B091B905B301A201481B590B6F
:103650006A0B7B0B4938534161057105A8F0892B32
:103660008A2B8B2B89F00E940F0A6DE872E083E1B0
:1036700096E00E94050A1092BB051092BA050E94BE
:10368000FA0881E08093B1058091AD059091AE0577
:10369000A091AF05B091B005A3019201281B390B91
:1036A0004A0B5B0BDA01C901813D9740A105B105C9
:1036B00008F43DCA0E94D5084092AD055092AE056F
:1036C0006092AF057092B00532CA019709F0A4CD9F
:1036D000222309F4A5CD8091B2059091B305A09164
:1036E000B405B091B50573016201C81AD90AEA0A96
:1036F000FB0A30E1C316D104E104F10408F48CCDD7
:103700001092BD054092B6055092B7056092B8057B
:103710007092B90589E00E94880460E08DE00E9403
:103720000A028090130290901402A0901502B090AB
:103730001602C701B6010E94031E6B8B7C8B8D8B1A
:103740009E8BC501B4010E94031E2DEC3CEC4CE0A5
:1037500050E40E94641E9B01AC016B897C898D89B9
:103760009E890E94FE1D87FF4CC0A5E0B0E0A50128
:1037700094010E94411F6C0D7D1D8E1D9F1D26E032
:1037800030E040E050E00E94541F20931302309339
:103790001402409315025093160285EB94E00E94A8
:1037A000D709209117063091180627303105A0F06F
:1037B000A9014650510963E176E0CE0101960E94CD
:1037C0004E0ABE016F5F7F4F83E196E00E94300991
:1037D000CE0101960E947B090E94FA0820911302F3
:1037E00030911402409115025091160260EB74E082
:1037F00080E090E00E94541F3093BB052093BA05EF
:103800000BCDC701B60123E030E040E050E00E945C
:10381000541F69017A01DA01C9014A97A109B10966
:1038200086379140A105B105C0F4A5E0B0E0A5013F
:1038300094010E94411F6C0D7D1D8E1D9F1D26E071
:1038400030E040E050E00E94541F20931302309378
:10385000140240931502509316028FE794E09FCF15
:10386000EA94EF2809F0D8CC83E00E94E1017C01C2
:1038700087E00E94E1019C019091BC05EF2809F0CE
:10388000AEC0911188C08091B105811106C08091B0
:10389000BA059091BB05892BA1F48BE490E0A0E0E0
:1038A000B0E08093130290931402A0931502B0939A
:1038B00016023092BB052092BA050E940F0A1092A0
:1038C000B10580911202882381F06DE872E083E1F6
:1038D00096E00E941B09811108C06DE872E083E147
:1038E00096E00E94050A0E94FA080E94690261E0BF
:1038F0008DE00E940A020E946D046B017C010E940F
:103900006D046C197D098E099F09009113021091B5
:103910001402209115023091160260177107820778
:10392000930768F389E00E94880460E08DE00E94BC
:103930000A0285EB94E00E94D70920911706309186
:10394000180627303105A0F0A9014650510963E15E
:1039500076E0CE0101960E944E0ABE016F5F7F4F56
:1039600083E196E00E943009CE0101960E947B0916
:103970000E94FA080E946D046093B6057093B70523
:103980008093B8059093B90510921202109211021B
:1039900081E08093BC058091BC05882309F43CCC70
:1039A0000E946D040091B6051091B7052091B805ED
:1039B0003091B905601B710B820B930B00911302C0
:1039C00010911402209115023091160260177107B0
:1039D0008207930708F420CC1092BC051DCC232B42
:1039E000D1F69111D8CF8091B105811106C0809197
:1039F000BA059091BB05892BA1F42BE430E040E09F
:103A000050E0209313023093140240931502509318
:103A100016023092BB052092BA050E940F0A10923E
:103A2000B10580911202882381F06DE872E083E194
:103A300096E00E941B09811108C06DE872E083E1E5
:103A400096E00E94050A0E94FA080E94690261E05D
:103A50008DE00E940A020E946D046B017C010E94AD
:103A60006D044B015C018C189D08AE08BF082091C5
:103A70001302309114024091150250911602A3E0F6
:103A8000B0E00E94411F86169706A806B90638F3D3
:103A900089E00E94880460E08DE00E940A028FE7BE
:103AA00094E049CF80E096E00E947B0983E196E0B4
:103AB0000C947B098F929F92AF92BF92CF92DF922C
:103AC000EF92FF92CF93DF93EC01688179818A8135
:103AD0009B81611571058105910521F464E279ED01
:103AE0008BE597E02DE133EF41E050E00E94221F8B
:103AF00049015A019B01AC01A7EAB1E40E94411FB0
:103B00006B017C01ACEEB4EFA50194010E944F1F44
:103B1000C60ED71EE81EF91EF7FE06C081E0C81AC1
:103B2000D108E10880E8F80AC882D982EA82FB82DB
:103B3000C701B6019F77DF91CF91FF90EF90DF90A3
:103B4000CF90BF90AF909F908F9008958F929F924B
:103B5000AF92BF92CF92DF92EF92FF9260911802E4
:103B60007091190280911A0290911B0261157105E2
:103B70008105910521F464E279ED8BE597E02DE173
:103B800033EF41E050E00E94221F49015A019B019E
:103B9000AC01A7EAB1E40E94411F6B017C01ACEECD
:103BA000B4EFA50194010E944F1FC60ED71EE81E58
:103BB000F91EF7FE06C081E0C81AD108E10880E8C6
:103BC000F80AC0921802D0921902E0921A02F092FA
:103BD0001B02C701B6019F77FF90EF90DF90CF9057
:103BE000BF90AF909F908F9008956093180270934C
:103BF000190280931A0290931B0208950E94401E9E
:103C000008F481E00895E89409C097FB3EF490958C
:103C10008095709561957F4F8F4F9F4F9923A9F0A5
:103C2000F92F96E9BB279395F69587957795679534
:103C3000B795F111F8CFFAF4BB0F11F460FF1BC078
:103C40006F5F7F4F8F4F9F4F16C0882311F096E90B
:103C500011C0772321F09EE8872F762F05C06623B9
:103C600071F096E8862F70E060E02AF09A95660F72
:103C7000771F881FDAF7880F9695879597F908952B
:103C8000990F0008550FAA0BE0E8FEEF161617066D
:103C9000E807F907C0F012161306E407F50798F0D5
:103CA000621B730B840B950B39F40A2661F0232BEE
:103CB000242B252B21F408950A2609F4A140A6956A
:103CC0008FEF811D811D08950E94771E0C94E81EC0
:103CD0000E94DA1E38F00E94E11E20F0952311F0B8
:103CE0000C94D11E0C94D71E11240C941C1F0E94FE
:103CF000F91E70F3959FC1F3950F50E0551F629F19
:103D0000F001729FBB27F00DB11D639FAA27F00D34
:103D1000B11DAA1F649F6627B00DA11D661F829F5B
:103D20002227B00DA11D621F739FB00DA11D621F40
:103D3000839FA00D611D221F749F3327A00D611D5D
:103D4000231F849F600D211D822F762F6A2F11243F
:103D50009F5750409AF0F1F088234AF0EE0FFF1F72
:103D6000BB1F661F771F881F91505040A9F79E3FC9
:103D7000510580F00C94D11E0C941C1F5F3FE4F39E
:103D8000983ED4F3869577956795B795F795E7951F
:103D90009F5FC1F7FE2B880F911D9695879597F928
:103DA000089597F99F6780E870E060E008959FEFBD
:103DB00080EC089500240A941616170618060906C2
:103DC000089500240A941216130614060506089591
:103DD000092E0394000C11F4882352F0BB0F40F419
:103DE000BF2B11F460FF04C06F5F7F4F8F4F9F4F59
:103DF000089557FD9058440F551F59F05F3F71F0DB
:103E00004795880F97FB991F61F09F3F79F0879541
:103E10000895121613061406551FF2CF4695F1DFCA
:103E200008C0161617061806991FF1CF869571055A
:103E3000610508940895E894BB2766277727CB018E
:103E400097F90895052E97FB1EF400940E94391FE0
:103E500057FD07D00E94541F07FC03D04EF40C946A
:103E6000391F50954095309521953F4F4F4F5F4FEB
:103E7000089590958095709561957F4F8F4F9F4FD6
:103E800008950E94761FA59F900DB49F900DA49F4A
:103E9000800D911D11240895B7FF0C94411F0E94BD
:103EA000411F821B930B0895A1E21A2EAA1BBB1B74
:103EB000FD010DC0AA1FBB1FEE1FFF1FA217B307F6
:103EC000E407F50720F0A21BB30BE40BF50B661F0C
:103ED000771F881F991F1A9469F7609570958095D0
:103EE00090959B01AC01BD01CF010895A29FB00147
:103EF000B39FC001A39F700D811D1124911DB29F1E
:103F0000700D811D1124911D08950E94401E08F41A
:103F10008FEF089597FB072E16F4009407D077FDD6
:103F200009D00E94A61F07FC05D03EF4909581950C
:103F30009F4F0895709561957F4F0895EE0FFF1F75
:103F4000881F8BBF0790F691E02D1994AA1BBB1B0D
:103F500051E107C0AA1FBB1FA617B70710F0A61B89
:103F6000B70B881F991F5A95A9F780959095BC01AA
:103F7000CD0108950F931F93CF93DF938230910566
:103F800010F482E090E0E0911B06F0911C0630E016
:103F900020E0B0E0A0E0309799F42115310509F454
:103FA0004AC0281B390B24303105D8F58A819B8102
:103FB0006115710589F1FB0193838283FE0111C0B4
:103FC000408151810281138148175907E0F0481759
:103FD000590799F4109761F012960C931297139663
:103FE0001C933296CF01DF91CF911F910F910895CD
:103FF00000931B0610931C06F4CF2115310551F0D8
:104000004217530738F0A901DB019A01BD01DF0116
:10401000F801C1CFEF01F9CF90931C0680931B06E6
:10402000CDCFFE01E20FF31F81939193225031090E
:1040300039832883D7CF2091190630911A06232B74
:1040400041F420911E0230911F0230931A062093F2
:10405000190620911C0230911D022115310541F4F1
:104060002DB73EB74091200250912102241B350B01
:10407000E0911906F0911A06E217F307A0F42E1B3F
:104080003F0B2817390778F0AC014E5F5F4F2417BC
:10409000350748F04E0F5F1F50931A0640931906DC
:1040A000819391939FCFF0E0E0E09CCFCF93DF939B
:1040B0000097E9F0FC01329713821282A0911B064F
:1040C000B0911C06ED0130E020E01097A1F42081B2
:1040D0003181820F931F2091190630911A062817FB
:1040E000390709F061C0F0931A06E0931906DF91D1
:1040F000CF910895EA01CE17DF07E8F54A815B8189
:104100009E0141155105B1F7E901FB83EA8349910D
:104110005991C40FD51FEC17FD0761F4808191817F
:104120000296840F951FE901998388838281938188
:104130009B838A83F0E0E0E012968D919C91139727
:104140000097B9F52D913C911197CD010296820F00
:10415000931F2091190630911A062817390739F64E
:10416000309751F510921C0610921B06B0931A0658
:10417000A0931906BCCFD383C28340815181840FA1
:10418000951FC817D90761F44E5F5F4F88819981E9
:10419000480F591F518340838A819B819383828377
:1041A0002115310509F0B0CFF0931C06E0931B06F2
:1041B0009ECFFD01DC01C0CF13821282D7CF4F9278
:1041C0005F926F927F928F929F92AF92BF92CF92A7
:1041D000DF92EF92FF920F931F93CF93DF938C01A7
:1041E000009799F4CB01DF91CF911F910F91FF9030
:1041F000EF90DF90CF90BF90AF909F908F907F9087
:104200006F905F904F900C94BA1FFC01E60FF71F60
:104210009C0122503109E217F30708F4AEC0D9011E
:10422000CD91DC911197C617D70720F1C530D10584
:1042300078F0CE0104978617970750F0C61BD70B6E
:104240002297C193D1936D937C93CF010E94562006
:10425000C801DF91CF911F910F91FF90EF90DF90F8
:10426000CF90BF90AF909F908F907F906F905F9016
:104270004F9008955B01AC1ABD0A4C018C0E9D1E37
:10428000A0911B06B0911C06512C412CF12CE12C65
:10429000109731F58091190690911A0688159905A5
:1042A00009F05CC04616570608F058C080911C0201
:1042B00090911D02009741F48DB79EB74091200266
:1042C00050912102841B950BE817F90708F055C09F
:1042D000F0931A06E0931906F90171836083B8CF51
:1042E0008D919C91119712966C90129713967C90D9
:1042F0001397A815B90559F56C0142E0C40ED11CFD
:10430000CA14DB0420F1AC014A195B09DA011296E8
:10431000159780F06282738251834083D9016D9337
:104320007C93E114F10471F0D7011396FC93EE93A2
:1043300012978ECF22968C0F9D1FF9019183808357
:10434000F301EFCFF0931C06E0931B0681CF4816D4
:10435000590608F42C017D01D3019ACFCB010E94AC
:10436000BA1F7C01009749F0AE01B8010E94C0213C
:10437000C8010E94562087016BCF10E000E068CF93
:10438000FB01DC0102C001900D9241505040D8F772
:104390000895FB01DC018D91019080190110D9F382
:1043A000990B0895FB01DC0101900D920020E1F7CB
:1043B000089511E0C6E4D1E000E006C0802FFE01C0
:1043C0000E949E1F2196011DC734D10780E0080777
:0643D000A9F7F894FFCFED
:1043D6008604860486048604860486048604860487
:1043E60020010196000000FF0100000000001D06EC
:1043F600800000004000100050002E2C3F202F3D72
:10440600003031323334353637383900414243448F
:1044160045464748494A4B4C4D4E4F5051525354CE
:1044260055565758595A0000000000C0059305D646
:104436000669058C0579056A05000000003708CD78
:1044460004D606870457504D0043573A00202020D3
:10445600202020202020202020202020200020573F
:10446600504D20202020003E204275636873746101
:1044760062656E2020200020204275636873746197
:1044860062656E202020003E205A61686C656E20B1
:104496002020202020200020205A61686C656E2094
:1044A600202020202020003E2047656D6973636828
:1044B60074202020202000202047656D69736368E2
:1044C600742020202020003E20536F6E6465727A8F
:1044D60065696368656E003E2048616E6474617349
:1044E600746520202020202000202048616E6474FE
:1044F60061737465202020202020003E20506164D6
:10450600646C6520284B657965722920002020504F
:104516006164646C6520284B657965722920003ECC
:10452600204357202D20547261696E657220202029
:104536000020204357202D20547261696E65722039
:104546002020003E2052583A204357204175646986
:104556006F20202000202052583A204357204175D2
:1045660064696F202020003E205265736574202008
:1045760020202020202020200020205265736574F2
:1045860020202020202020202020004E65757374D6
:10459600617274656E2E2E2E00547261696E65729C
:1045A6002D4D6F6475733A00547261696E65722D94
:1045B60054656D706F3A003E2048616E6474617395
:1045C6007465203C003E20506164646C65203C00AC
:1045D6003E20547261696E6572204F6E203C003E2B
:1045E6002052583A20435720417564696F203C0099
:1045F600435720546F6F6C20627920444C394B53DB
:1046060000204D4547412045646974696F6E20203E
:104616000020202020202056312E36202020202049
:10462600200043572D547261696E6572002D2E2D40
:104636002E002E2D2E2E002E2D2D2E002D2D2E2D24
:10464600002D2E2E2D002D2E2D2D002D2D2D2D2D18
:10465600002E2D2D2D2D002E2E2D2D2D002E2E2E05
:104666002D2D002E2E2E2E2D002E2E2E2E2E002DF2
:104676002E2E2E2E002D2D2E2E2E002D2D2D2E2EB5
:10468600002D2D2D2D2E002E2D2E2D2E2D002D2DD7
:104696002E2E2D2D002E2E2D2D2E2E002D2E2E2D96
:1046A6002E002D2E2E2E2D0043573A20002D2D2E76
:0246B6005F00A3
:00000001FF
